{
  "_format": "hh-sol-artifact-1",
  "contractName": "CampaignFactory",
  "sourceName": "contracts/Campaign.sol",
  "abi": [
    {
      "anonymous": false,
      "inputs": [
        {
          "indexed": false,
          "internalType": "string",
          "name": "title",
          "type": "string"
        },
        {
          "indexed": false,
          "internalType": "uint256",
          "name": "requiredAmount",
          "type": "uint256"
        },
        {
          "indexed": true,
          "internalType": "address",
          "name": "owner",
          "type": "address"
        },
        {
          "indexed": false,
          "internalType": "address",
          "name": "campaignAddress",
          "type": "address"
        },
        {
          "indexed": false,
          "internalType": "string",
          "name": "imgURI",
          "type": "string"
        },
        {
          "indexed": true,
          "internalType": "uint256",
          "name": "timestamp",
          "type": "uint256"
        },
        {
          "indexed": true,
          "internalType": "string",
          "name": "category",
          "type": "string"
        }
      ],
      "name": "campaignCreated",
      "type": "event"
    },
    {
      "inputs": [
        {
          "internalType": "string",
          "name": "campaignTitle",
          "type": "string"
        },
        {
          "internalType": "uint256",
          "name": "requiredCampaignAmount",
          "type": "uint256"
        },
        {
          "internalType": "string",
          "name": "imgURI",
          "type": "string"
        },
        {
          "internalType": "string",
          "name": "category",
          "type": "string"
        },
        {
          "internalType": "string",
          "name": "storyURI",
          "type": "string"
        }
      ],
      "name": "createCampaign",
      "outputs": [],
      "stateMutability": "nonpayable",
      "type": "function"
    },
    {
      "inputs": [
        {
          "internalType": "uint256",
          "name": "",
          "type": "uint256"
        }
      ],
      "name": "deployedCampaigns",
      "outputs": [
        {
          "internalType": "address",
          "name": "",
          "type": "address"
        }
      ],
      "stateMutability": "view",
      "type": "function"
    }
  ],
  "bytecode": "0x608060405234801561001057600080fd5b506117d0806100206000396000f3fe60806040523480156200001157600080fd5b50600436106200003a5760003560e01c8063339d50a5146200003f578063c658857d1462000075575b600080fd5b6200005d600480360381019062000057919062000251565b62000095565b6040516200006c9190620002c8565b60405180910390f35b6200009360048036038101906200008d919062000447565b620000d5565b005b60008181548110620000a657600080fd5b906000526020600020016000915054906101000a900473ffffffffffffffffffffffffffffffffffffffff1681565b60008585858433604051620000ea90620001f4565b620000fa959493929190620005ef565b604051809103906000f08015801562000117573d6000803e3d6000fd5b5090506000819080600181540180825580915050600190039060005260206000200160009091909190916101000a81548173ffffffffffffffffffffffffffffffffffffffff021916908373ffffffffffffffffffffffffffffffffffffffff160217905550826040516200018d9190620006a3565b6040518091039020423373ffffffffffffffffffffffffffffffffffffffff167ff932d905365211c7f19fda44bcb55b1adbe63365f7cdae1c35ddcb3e38ed1d468989868a604051620001e49493929190620006bc565b60405180910390a4505050505050565b611083806200071883390190565b6000604051905090565b600080fd5b600080fd5b6000819050919050565b6200022b8162000216565b81146200023757600080fd5b50565b6000813590506200024b8162000220565b92915050565b6000602082840312156200026a57620002696200020c565b5b60006200027a848285016200023a565b91505092915050565b600073ffffffffffffffffffffffffffffffffffffffff82169050919050565b6000620002b08262000283565b9050919050565b620002c281620002a3565b82525050565b6000602082019050620002df6000830184620002b7565b92915050565b600080fd5b600080fd5b6000601f19601f8301169050919050565b7f4e487b7100000000000000000000000000000000000000000000000000000000600052604160045260246000fd5b6200033a82620002ef565b810181811067ffffffffffffffff821117156200035c576200035b62000300565b5b80604052505050565b60006200037162000202565b90506200037f82826200032f565b919050565b600067ffffffffffffffff821115620003a257620003a162000300565b5b620003ad82620002ef565b9050602081019050919050565b82818337600083830152505050565b6000620003e0620003da8462000384565b62000365565b905082815260208101848484011115620003ff57620003fe620002ea565b5b6200040c848285620003ba565b509392505050565b600082601f8301126200042c576200042b620002e5565b5b81356200043e848260208601620003c9565b91505092915050565b600080600080600060a086880312156200046657620004656200020c565b5b600086013567ffffffffffffffff81111562000487576200048662000211565b5b620004958882890162000414565b9550506020620004a8888289016200023a565b945050604086013567ffffffffffffffff811115620004cc57620004cb62000211565b5b620004da8882890162000414565b935050606086013567ffffffffffffffff811115620004fe57620004fd62000211565b5b6200050c8882890162000414565b925050608086013567ffffffffffffffff81111562000530576200052f62000211565b5b6200053e8882890162000414565b9150509295509295909350565b600081519050919050565b600082825260208201905092915050565b60005b83811015620005875780820151818401526020810190506200056a565b8381111562000597576000848401525b50505050565b6000620005aa826200054b565b620005b6818562000556565b9350620005c881856020860162000567565b620005d381620002ef565b840191505092915050565b620005e98162000216565b82525050565b600060a08201905081810360008301526200060b81886200059d565b90506200061c6020830187620005de565b81810360408301526200063081866200059d565b905081810360608301526200064681856200059d565b9050620006576080830184620002b7565b9695505050505050565b600081905092915050565b600062000679826200054b565b62000685818562000661565b93506200069781856020860162000567565b80840191505092915050565b6000620006b182846200066c565b915081905092915050565b60006080820190508181036000830152620006d881876200059d565b9050620006e96020830186620005de565b620006f86040830185620002b7565b81810360608301526200070c81846200059d565b90509594505050505056fe60806040523480156200001157600080fd5b506040516200108338038062001083833981810160405281019062000037919062000417565b84600090805190602001906200004f9291906200012a565b508360018190555082600290805190602001906200006f9291906200012a565b508160039080519060200190620000889291906200012a565b5080600460006101000a81548173ffffffffffffffffffffffffffffffffffffffff021916908373ffffffffffffffffffffffffffffffffffffffff16021790555073dab9381c51eaeca154bd91600f6c1fce94bcea23600660006101000a81548173ffffffffffffffffffffffffffffffffffffffff021916908373ffffffffffffffffffffffffffffffffffffffff160217905550505050505062000561565b82805462000138906200052b565b90600052602060002090601f0160209004810192826200015c5760008555620001a8565b82601f106200017757805160ff1916838001178555620001a8565b82800160010185558215620001a8579182015b82811115620001a75782518255916020019190600101906200018a565b5b509050620001b79190620001bb565b5090565b5b80821115620001d6576000816000905550600101620001bc565b5090565b6000604051905090565b600080fd5b600080fd5b600080fd5b600080fd5b6000601f19601f8301169050919050565b7f4e487b7100000000000000000000000000000000000000000000000000000000600052604160045260246000fd5b6200024382620001f8565b810181811067ffffffffffffffff8211171562000265576200026462000209565b5b80604052505050565b60006200027a620001da565b905062000288828262000238565b919050565b600067ffffffffffffffff821115620002ab57620002aa62000209565b5b620002b682620001f8565b9050602081019050919050565b60005b83811015620002e3578082015181840152602081019050620002c6565b83811115620002f3576000848401525b50505050565b6000620003106200030a846200028d565b6200026e565b9050828152602081018484840111156200032f576200032e620001f3565b5b6200033c848285620002c3565b509392505050565b600082601f8301126200035c576200035b620001ee565b5b81516200036e848260208601620002f9565b91505092915050565b6000819050919050565b6200038c8162000377565b81146200039857600080fd5b50565b600081519050620003ac8162000381565b92915050565b600073ffffffffffffffffffffffffffffffffffffffff82169050919050565b6000620003df82620003b2565b9050919050565b620003f181620003d2565b8114620003fd57600080fd5b50565b6000815190506200041181620003e6565b92915050565b600080600080600060a08688031215620004365762000435620001e4565b5b600086015167ffffffffffffffff811115620004575762000456620001e9565b5b620004658882890162000344565b955050602062000478888289016200039b565b945050604086015167ffffffffffffffff8111156200049c576200049b620001e9565b5b620004aa8882890162000344565b935050606086015167ffffffffffffffff811115620004ce57620004cd620001e9565b5b620004dc8882890162000344565b9250506080620004ef8882890162000400565b9150509295509295909350565b7f4e487b7100000000000000000000000000000000000000000000000000000000600052602260045260246000fd5b600060028204905060018216806200054457607f821691505b602082108114156200055b576200055a620004fc565b5b50919050565b610b1280620005716000396000f3fe6080604052600436106100dd5760003560e01c80639632e7201161007f578063deb4585511610059578063deb4585514610290578063ed88c68e146102a7578063f3ccaac0146102b1578063fc735e99146102dc576100dd565b80639632e7201461020f57806399c8d5561461023a578063d689aef114610265576100dd565b80634a79d50c116100bb5780634a79d50c146101635780635f4225381461018e57806389e2940e146101b95780638da5cb5b146101e4576100dd565b806312a82d49146100e257806346c922d11461010d57806348b9ef4014610138575b600080fd5b3480156100ee57600080fd5b506100f7610307565b60405161010491906107c4565b60405180910390f35b34801561011957600080fd5b5061012261030d565b60405161012f9190610878565b60405180910390f35b34801561014457600080fd5b5061014d61039b565b60405161015a91906107c4565b60405180910390f35b34801561016f57600080fd5b506101786103a1565b6040516101859190610878565b60405180910390f35b34801561019a57600080fd5b506101a361042f565b6040516101b091906107c4565b60405180910390f35b3480156101c557600080fd5b506101ce610435565b6040516101db91906107c4565b60405180910390f35b3480156101f057600080fd5b506101f961043b565b60405161020691906108db565b60405180910390f35b34801561021b57600080fd5b50610224610461565b60405161023191906107c4565b60405180910390f35b34801561024657600080fd5b5061024f610467565b60405161025c91906108db565b60405180910390f35b34801561027157600080fd5b5061027a61048d565b60405161028791906107c4565b60405180910390f35b34801561029c57600080fd5b506102a5610493565b005b6102af610540565b005b3480156102bd57600080fd5b506102c6610717565b6040516102d39190610878565b60405180910390f35b3480156102e857600080fd5b506102f16107a5565b6040516102fe91906107c4565b60405180910390f35b60075481565b6003805461031a90610925565b80601f016020809104026020016040519081016040528092919081815260200182805461034690610925565b80156103935780601f1061036857610100808354040283529160200191610393565b820191906000526020600020905b81548152906001019060200180831161037657829003601f168201915b505050505081565b60015481565b600080546103ae90610925565b80601f01602080910402602001604051908101604052809291908181526020018280546103da90610925565b80156104275780601f106103fc57610100808354040283529160200191610427565b820191906000526020600020905b81548152906001019060200180831161040a57829003601f168201915b505050505081565b600a5481565b600b5481565b600460009054906101000a900473ffffffffffffffffffffffffffffffffffffffff1681565b60055481565b600660009054906101000a900473ffffffffffffffffffffffffffffffffffffffff1681565b60095481565b600060088190555073fed91e33eff38f5547fcf6febe4600fb1d0d22fc73ffffffffffffffffffffffffffffffffffffffff163373ffffffffffffffffffffffffffffffffffffffff16146104ef5760006008819055506104f8565b60026008819055505b6008543373ffffffffffffffffffffffffffffffffffffffff167f8585ac756b9bd7f4e49041801e5b410ccf14765e8d70fe4f3987f93f77ac15ef60405160405180910390a3565b60055460015411610586576040517f08c379a000000000000000000000000000000000000000000000000000000000815260040161057d906109a3565b60405180910390fd5b600660009054906101000a900473ffffffffffffffffffffffffffffffffffffffff1673ffffffffffffffffffffffffffffffffffffffff166108fc6064346105cf9190610a21565b9081150290604051600060405180830381858888f193505050501580156105fa573d6000803e3d6000fd5b506064346106089190610a21565b600781905550600460009054906101000a900473ffffffffffffffffffffffffffffffffffffffff1673ffffffffffffffffffffffffffffffffffffffff166108fc600754346106589190610a52565b9081150290604051600060405180830381858888f19350505050158015610683573d6000803e3d6000fd5b5034600560008282546106969190610a86565b9250508190555034600960008282546106af9190610a86565b925050819055506001600a60008282546106c99190610a86565b9250508190555042343373ffffffffffffffffffffffffffffffffffffffff167fe6add99d06d9ad7fc456e746aa162eed6211c5002ef2dacdd67b8d2016822fba60405160405180910390a4565b6002805461072490610925565b80601f016020809104026020016040519081016040528092919081815260200182805461075090610925565b801561079d5780601f106107725761010080835404028352916020019161079d565b820191906000526020600020905b81548152906001019060200180831161078057829003601f168201915b505050505081565b60085481565b6000819050919050565b6107be816107ab565b82525050565b60006020820190506107d960008301846107b5565b92915050565b600081519050919050565b600082825260208201905092915050565b60005b838110156108195780820151818401526020810190506107fe565b83811115610828576000848401525b50505050565b6000601f19601f8301169050919050565b600061084a826107df565b61085481856107ea565b93506108648185602086016107fb565b61086d8161082e565b840191505092915050565b60006020820190508181036000830152610892818461083f565b905092915050565b600073ffffffffffffffffffffffffffffffffffffffff82169050919050565b60006108c58261089a565b9050919050565b6108d5816108ba565b82525050565b60006020820190506108f060008301846108cc565b92915050565b7f4e487b7100000000000000000000000000000000000000000000000000000000600052602260045260246000fd5b6000600282049050600182168061093d57607f821691505b60208210811415610951576109506108f6565b5b50919050565b7f726571756972656420616d6f756e742066756c6c66696c6c6564000000000000600082015250565b600061098d601a836107ea565b915061099882610957565b602082019050919050565b600060208201905081810360008301526109bc81610980565b9050919050565b7f4e487b7100000000000000000000000000000000000000000000000000000000600052601260045260246000fd5b7f4e487b7100000000000000000000000000000000000000000000000000000000600052601160045260246000fd5b6000610a2c826107ab565b9150610a37836107ab565b925082610a4757610a466109c3565b5b828204905092915050565b6000610a5d826107ab565b9150610a68836107ab565b925082821015610a7b57610a7a6109f2565b5b828203905092915050565b6000610a91826107ab565b9150610a9c836107ab565b9250827fffffffffffffffffffffffffffffffffffffffffffffffffffffffffffffffff03821115610ad157610ad06109f2565b5b82820190509291505056fea2646970667358221220cd01d3876f26b8ed69be22941d9c5d7aa2ee6f9adcf7ab4550b28ef4200f5b9364736f6c634300080a0033a2646970667358221220cc02fc8acd7ef498552f6228aa0593b91146bab5b06fdc8e5ebc2d168355039364736f6c634300080a0033",
  "linkReferences": {},
  "deployedLinkReferences": {}
}